S01E000043616C63756C61746F725F537461636B5F42617365642E7372656369
S11300000C942A000C9447000C9447000C9447006D
S11300100C9447000C9447000C9447000C94470040
S11300200C9447000C9447000C9447000C94470030
S11300300C9447000C9447000C9447000C94470020
S11300400C9447000C9447000C9447000C94470010
S11300500C94470011241FBECFE5D8E0DEBFCDBF0E
S113006010E0A0E6B0E0E4E2F1E102C005900D92F8
S1130070AA3AB107D9F721E0AAEAB0E001C01D927B
S1130080A431B207E1F70E942F050C9490080C9458
S113009000000F931F93CF93DF938C0188E090E0CF
S11300A00E945707EC01892BB9F08FEF9FEFDC0119
S11300B088839983AA83BB831D830C83C801880F1B
S11300C0991F880F991F0E9457079F838E83892B3E
S11300D031F480E090E005C080E090E002C08C2F15
S11300E09D2FDF91CF911F910F910895FC01808185
S11300F09181A281B38161E08F3F9F4FAF4FBF4F8A
S113010009F060E070E080E090E00895CF93DF9321
S1130110EC010E947600672B682B692BE1F42E8199
S11301203F8188819981AA81BB81AC01BD01415085
S1130130510961097109488359836A837B83880F54
S1130140991F880F991FF901E80FF91F60817181C8
S11301508281938104C064E270E080E090E0DF91EA
S1130160CF9108950F931F93FC018681978100819D
S11301701181228133810F5F1F4F2F4F3F4F008327
S1130180118322833383000F111F000F111FFC0101
S1130190E00FF11F40835183628373831F910F919A
S11301A008954F925F926F927F928F929F92AF9237
S11301B0BF92EF92FF920F931F93CF93DF93EC01C3
S11301C0FC0101900020E9F7CF0101978C1B9D0BE6
S11301D00E9449007C01892B09F496C0412C512CC2
S11301E0320187C0803209F47FC0082E000C990BBD
S11301F0C0970A9730F13CC0440F551F661F771F04
S1130200DB01CA01880F991FAA1FBB1F880F991F02
S1130210AA1FBB1F480F591F6A1F7B1F022E000C09
S1130220330BC901C097092E000CAA0BBB0B480F56
S1130230591F6A1F7B1FFFEF4F1A5F0A6F0A7F0A5D
S113024003C040E050E0BA01FE01E40DF51D208139
S1130250822F022E000C990BC0970A9768F281E056
S1130260481A510861087108C7010E94B2003CC0D5
S1130270C7010E9486004B015C01C7010E948600F1
S1130280F80120812B3249F01CF42A32D1F02CC021
S11302902D3269F02F32F9F027C0AB01BC01480DB3
S11302A0591D6A1D7B1DC7010E94B2001DC0AB0110
S11302B0BC01481959096A097B09C7010E94B200A7
S11302C013C0A50194010E94EC06AB01BC01C70157
S11302D00E94B20009C0A50194010E94FC06BA0163
S11302E0A901C7010E94B200FFEF4F1A5F0A6F0A0B
S11302F07F0A8E01040D151DF8018081811172CFD2
S1130300C7010E94860003C06FEF7FEFCB01DF912E
S1130310CF911F910F91FF90EF90BF90AF909F905E
S11303208F907F906F905F904F9008958D3259F029
S11303302CF48A32B1F08B3231F00FC08F3289F055
S11303408E3531F00AC061E070E080E090E00895FD
S113035063E070E080E090E008956FEF7FEFCB0101
S1130360089562E070E080E090E008958B3259F0E7
S11303708D3261F08A3269F08F3271F08E3579F402
S113038061E070E00EC061E070E00BC061E070E01D
S113039008C061E070E005C061E070E002C060E0A8
S11303A070E0072E000C880B990B08952F923F9252
S11303B04F925F926F927F928F929F92AF92BF9271
S11303C0CF92DF92EF92FF920F931F93CF93DF931D
S11303D0CDB7DEB7C057D1090FB6F894DEBF0FBE54
S11303E0CDBF8C01FC0101900020E9F73197CF01CA
S11303F0801B910B9C0140E050E0AF962CAF3DAFC9
S11304004EAF5FAFAF9702960E9457071C01CC24F2
S1130410CA94DC2C7601412C512C3201812C912C74
S11304205401E1961FAF0EAFE197C0C0E1964EAD07
S11304305FADE197480D591DA7965FAF4EAFA797E3
S1130440DA011C91103209F4ACC0193009F4A9C0C6
S1130450812F012E000C990B0E947808892B51F0F2
S1130460F101E40DF51D1083BFEF4B1A5B0A6B0A13
S11304707B0A97C0183269F4EFEFCE1ADE0AEE0A4F
S1130480FE0AE1E0F0E0EC0FFD1FEC0DFD1D108312
S113049088C0193261F50EC0F101E40DF51D21E0AB
S11304A0C21AD108E108F10880833FEF431A530AC6
S11304B0630A730AFF204CF0E1E0F0E0EC0FFD1F4B
S11304C0EC0DFD1D8081883239F7FF2054F0E1E006
S11304D0F0E0EC0FFD1FEC0DFD1D8081883209F06A
S11304E091C041E0C41AD108E108F1085AC0812F33
S11304F00E94B601672B682B692B09F452C0F101E5
S1130500E40DF51D80E280835FEF451A550A650A04
S1130510750AF101E40DF51D80830EC0F101E40DAF
S1130520F51D81E0C81AD108E108F10810839FEF96
S1130530491A590A690A790AFF2014F1E1E0F0E046
S1130540EC0FFD1FEC0DFD1D1081812F0E94960103
S1130550AB966CAF7DAF8EAF9FAFAB97A796AEADAA
S1130560BFADA7978C910E949601AB962CAD3DAD83
S11305704EAD5FADAB97261737074807590774F69A
S11305803FEFC31AD30AE30AF30AA796AEADBFAD91
S1130590A7978C91E1E0F0E0EC0FFD1FEC0DFD1D41
S11305A08083BFEF8B1A9B0AAB0ABB0AAF962CADB4
S11305B03DAD4EAD5FADAF9782169306A406B5066A
S11305C00CF434CF17C0E1E0F0E0EC0FFD1FEC0DAC
S11305D0FD1D80818832C9F0F101E40DF51D31E083
S11305E0C31AD108E108F10880834FEF441A540A72
S11305F0640A740AFF203CF7F101E40DF51D108232
S1130600C10105C08FE790E002C08FE790E0C059B8
S1130610DF4F0FB6F894DEBF0FBECDBFDF91CF9191
S11306201F910F91FF90EF90DF90CF90BF90AF900C
S11306309F908F907F906F905F904F903F902F90FE
S1130640089561E083E20E94960561E082E20E94DF
S1130650960561E081E20E94960561E080E20E94D5
S1130660960561E083E20E941F0661E082E20E9437
S11306701F0661E081E20E941F0661E080E20E94A1
S11306801F0660E08FE20E94960560E08EE20E9401
S1130690960560E08DE20E94960560E08BE20E9480
S11306A0960508951092AB0052C0F0E0E558FF4F54
S11306B060E080810E941F061092AA0036C0F0E01C
S11306C0E958FF4F80810E94A806811129C08BE45C
S11306D09DE10197F1F700C00000E091AA00F0E06D
S11306E0E958FF4F80810E94A806811119C0E0914A
S11306F0AA00F0E0E958FF4F80810E94A8068823F1
S1130700B1F3E091AB00F0E08091AA00EE0FFF1F7F
S1130710EE0FFF1FE959FF4FE80FF11D8081089587
S11307208091AA008F5F8093AA00E091AA00E43030
S113073030F2E091AB00F0E0E558FF4F61E08081DA
S11307400E941F068091AB008F5F8093AB00E09105
S1130750AB00E43008F4A9CF809166000895CF93EC
S1130760C82F61E08DE00E941F06C4FB662760F974
S113077084E10E941F06C5FB662760F985E10E949B
S11307801F06C6FB662760F986E10E941F066C2FD0
S1130790661F6627661F88E10E941F0661E08CE0E1
S11307A00E941F0689EF90E00197F1F700C0000056
S11307B060E08CE00E941F0689EF90E00197F1F75A
S11307C000C000006C2F617084E10E941F06C1FB11
S11307D0662760F985E10E941F06C2FB662760F95F
S11307E086E10E941F06C3FB662760F988E10E9428
S11307F01F0661E08CE00E941F0689EF90E00197DC
S1130800F1F700C0000060E08CE00E941F0681EE5A
S113081094E00197F1F700C00000CF910895CF93C1
S1130820C82F60E08DE00E941F06C4FB662760F9B4
S113083084E10E941F06C5FB662760F985E10E94DA
S11308401F06C6FB662760F986E10E941F066C2F0F
S1130850661F6627661F88E10E941F0661E08CE020
S11308600E941F0689EF90E00197F1F700C0000095
S113087060E08CE00E941F0689EF90E00197F1F799
S113088000C000006C2F617084E10E941F06C1FB50
S1130890662760F985E10E941F06C2FB662760F99E
S11308A086E10E941F06C3FB662760F988E10E9467
S11308B01F0661E08CE00E941F0689EF90E001971B
S11308C0F1F700C0000060E08CE00E941F0681EE9A
S11308D094E00197F1F700C00000CF91089561E022
S11308E084E10E94960561E085E10E94960561E03D
S11308F086E10E94960561E088E10E94960561E028
S11309008DE00E94960561E08CE00E94960583E3E9
S11309100E940F0482E30E940F0488E20E940F04E5
S11309208CE00E940F0482E00E940F0481E00E9488
S11309300F0408950F931F93CF938C01C0E003C05D
S11309400E94AF03CF5FF801EC0FF11D808181118C
S1130950F7CFCF911F910F91089581E00E940F046A
S11309600895CF92DF92EF92FF921F93CF93DF937C
S1130970CDB7DEB72A970FB6F894DEBF0FBECDBF52
S11309806B017C01FE0131968AE0DF011D928A959C
S1130990E9F7FF205CF4F094E094D094C094C11C77
S11309A0D11CE11CF11C8DE20E94AF0310E0C701D1
S11309B0B6012AE030E040E050E00E94FC06E1E0AD
S11309C0F0E0EC0FFD1FE10FF11D17FDFA956083B8
S11309D0C22ED32EE42EF52E1F5FC114D104E104E0
S11309E0F10429F70DC01150E1E0F0E0EC0FFD1F18
S11309F0E10FF11D17FDFA958081805D0E94AF0320
S1130A0011168CF32A960FB6F894DEBF0FBECDBF35
S1130A10DF91CF911F91FF90EF90DF90CF900895D9
S1130A20CF93DF9300D000D0CDB7DEB790E89983A1
S1130A3090EC9A8394E99B8394ED9C83E1E0F0E04D
S1130A40EC0FFD1FE80FF11D8081860F0E940F043B
S1130A500F900F900F900F90DF91CF9108950E9407
S1130A6021030E946F0482E990E00E949A042FED12
S1130A7088EC90E1215080409040E1F700C00000F4
S1130A800E94AD0410E0D0E00E945203C82F8FEC06
S1130A908C0F893060F0CA3251F0CF3241F0CB3242
S1130AA031F0CD3221F0C83211F0C93251F51F5F57
S1130AB0612F80E00E941005CA3231F0CF3221F05C
S1130AC0CB3211F0CD3289F48C2F0E94AF03ED2F7D
S1130AD0F0E0E455FF4FC083E1E0ED0FF0E0DE5FAE
S1130AE0E455FF4F80E28083CFCF01E00D0FED2F5F
S1130AF0F0E0E455FF4FC0838C2F0E94AF03D02F4A
S1130B00C3CFCD3309F68CEA90E00E94D6017C0174
S1130B1061E082E00E94100585EA90E00E949A0458
S1130B20C7010E94D1000E94B104AECF9DEC899F01
S1130B30912D1124292F269526952695220F322FA3
S1130B40330F330F230F821B282F96959695969576
S1130B50662319F06130E1F108959230A9F018F498
S1130B60913031F008959330D9F0943029F10895FB
S1130B703AB381E090E002C0880F991F2A95E2F70A
S1130B80809583238ABB089537B381E090E002C047
S1130B90880F991F2A95E2F78095832387BB0895D0
S1130BA034B381E090E002C0880F991F2A95E2F7E0
S1130BB08095832384BB089531B381E090E002C023
S1130BC0880F991F2A95E2F78095832381BB0895A6
S1130BD09230A1F018F4913031F008959330C9F0B7
S1130BE0943011F108953AB381E090E002C0880F87
S1130BF0991F2A95E2F7832B8ABB089537B381E0C6
S1130C0090E002C0880F991F2A95E2F7832B87BBD7
S1130C10089534B381E090E002C0880F991F2A95AB
S1130C20E2F7832B84BB089531B381E090E002C0E6
S1130C30880F991F2A95E2F7832B81BB08959DECB9
S1130C40899F912D1124292F269526952695220FCB
S1130C50322F330F330F230F821B282F969596952F
S1130C609695662319F06130E1F108959230A9F068
S1130C7018F4913031F008959330D9F0943029F17B
S1130C8008953BB381E090E002C0880F991F2A9534
S1130C90E2F7809583238BBB089538B381E090E01D
S1130CA002C0880F991F2A95E2F78095832388BB99
S1130CB0089535B381E090E002C0880F991F2A950A
S1130CC0E2F78095832385BB089532B381E090E0F9
S1130CD002C0880F991F2A95E2F78095832382BB6F
S1130CE008959230A1F018F4913031F008959330C2
S1130CF0C9F0943011F108953BB381E090E002C053
S1130D00880F991F2A95E2F7832B8BBB089538B37C
S1130D1081E090E002C0880F991F2A95E2F7832BA7
S1130D2088BB089535B381E090E002C0880F991F15
S1130D302A95E2F7832B85BB089532B381E090E0D6
S1130D4002C0880F991F2A95E2F7832B82BB08956E
S1130D509DEC899F912D1124292F26952695269562
S1130D60220F322F330F330F230F821B282F892F8B
S1130D70869586958695823091F018F4813031F00D
S1130D8029C08330A9F08430E1F024C089B390E015
S1130D9002C0959587952A95E2F78170089586B3E8
S1130DA090E002C0959587952A95E2F781700895A1
S1130DB083B390E002C0959587952A95E2F78170F8
S1130DC0089580B390E002C0959587952A95E2F73F
S1130DD08170089580E00895DB018F939F930E94B2
S1130DE01B07BF91AF91A29F800D911DA39F900DF2
S1130DF0B29F900D11240895052E97FB1EF40094C4
S1130E000E94130757FD07D00E94260707FC03D052
S1130E104EF40C94130750954095309521953F4F0F
S1130E204F4F5F4F089590958095709561957F4FD2
S1130E308F4F9F4F08950E944807A59F900DB49F20
S1130E40900DA49F800D911D11240895A1E21A2EE6
S1130E50AA1BBB1BFD010DC0AA1FBB1FEE1FFF1F5A
S1130E60A217B307E407F50720F0A21BB30BE40BAA
S1130E70F50B661F771F881F991F1A9469F76095F1
S1130E807095809590959B01AC01BD01CF010895AB
S1130E90A29FB001B39FC001A39F700D811D1124B7
S1130EA0911DB29F700D811D1124911D08950F9302
S1130EB01F93CF93DF938230910510F482E090E08A
S1130EC0E0911201F091130120E030E0A0E0B0E0E5
S1130ED0309719F1408151810281138148175907D4
S1130EE0C8F08417950769F4109731F012960C93A3
S1130EF0129713961C9327C00093120110931301A9
S1130F0022C02115310519F04217530718F49A012C
S1130F10BD01EF01DF01F801DBCF21153105F9F047
S1130F20281B390B2430310580F48A819B8161159B
S1130F30710521F0FB019383828304C09093130114
S1130F4080931201FE01329644C0FE01E20FF31FAA
S1130F508193919322503109398328833AC0209197
S1130F60100130911101232B41F420916200309142
S1130F70630030931101209310012091600030919F
S1130F8061002115310541F42DB73EB7409164004D
S1130F9050916500241B350BE0911001F091110173
S1130FA0E217F307A0F42E1B3F0B2817390778F03C
S1130FB0AC014E5F5F4F2417350748F04E0F5F1F9B
S1130FC050931101409310018193919302C0E0E08A
S1130FD0F0E0CF01DF91CF911F910F910895CF934E
S1130FE0DF93009709F481C0FC01329713821282C7
S1130FF0A0911201B0911301109781F420813181E5
S1131000820F931F20911001309111012817390785
S113101051F5F0931101E093100167C0ED0120E058
S113102030E0CE17DF0740F44A815B819E01411511
S11310305105F1F0EA01F5CFD383C2834081518198
S1131040840F951FC817D90759F488819981840F93
S1131050951F0296918380838A819B8193838283E7
S11310602115310529F4F0931301E09312013DC0D9
S1131070E901FB83EA8349915991C40FD51FEC1709
S1131080FD0761F480819181840F951F0296E90127
S113109099838883828193819B838A83E0E0F0E053
S11310A012968D919C911397009719F0FD01DC0124
S11310B0F7CF8D919C9111979D012E5F3F4F820F29
S11310C0931F20911001309111012817390769F4F9
S11310D0309729F4109213011092120102C0138266
S11310E01282B0931101A0931001DF91CF91089562
S11310F091110C94820880538A5018F0865C0C94E9
S11311008808089599278827089585FD0C948208F6
S1131110806291110C94820881568A51D8F70895FF
S1071120F894FFCF6D
S1131124000014012000013738392F3435362A31B0
S113113432332D28293D2B2F2E2D2B2322212049D8
S11311446E76616C69642045787072657373696F37
S11311546E0020454E544552204558505245535331
S10D1164494F4E2000414E533D0058
S9030000FC
