S02500004175746F6D617465645F446F6F725F436F6E74726F6C5F53797374656D2E7372656344
S11300000C942A000C943F000C943F000C943F0085
S11300100C943F000C943F000C943F000C943F0060
S11300200C943F000C943F000C943F000C943F0050
S11300300C943F000C943F000C943F000C943F0040
S11300400C943F000C943F000C943F000C943F0030
S11300500C943F0011241FBECFE5D8E0DEBFCDBF16
S113006010E0A0E6B0E0ECE1FDE002C005900D92E6
S1130070A63BB107D9F70E9468020C948C060C9435
S1130080000041E065E082E00E944B0341E064E04F
S113009082E00E944B0341E063E082E00E944B0354
S11300A041E062E082E00E944B0341E065E082E0CF
S11300B00E94C10341E064E082E00E94C10341E088
S11300C063E082E00E94C10341E062E082E00E94BA
S11300D0C10340E067E083E00E944B0340E066E038
S11300E083E00E944B0340E064E083E00E944B0302
S11300F040E063E083E00E944B0341E067E083E07B
S11301000E94C10341E066E083E00E94C10341E034
S113011064E083E00E94C10341E063E083E00E9465
S1130120C1030895BF92CF92DF92EF92FF920F9393
S11301301F93CF93DF93CDB7DEB761970FB6F894D3
S1130140DEBF0FBECDBF80E1E8E6F0E0DE01119630
S113015001900D928A95E1F700E0BB24BA9442C065
S1130160C02ED12CF601E05AFF4F40E0608182E0BE
S11301700E94C10310E02BC0E12EF12CF701EC59D1
S1130180FF4FAE014F5E5F4F608183E00E942E04FB
S1130190898981111BC02FE131EA87E02150304069
S11301A08040E1F700C00000898981110FC0C601B9
S11301B0880F991F880F991F21E030E02C0F3D1FF5
S11301C0820F931FFC01EE0DFF1DB0801F5F1430E2
S11301D098F2F601E05AFF4F41E0608182E00E940C
S11301E0C1030F5F043008F4BBCF8B2D61960FB6AB
S11301F0F894DEBF0FBECDBFDF91CF911F910F9159
S1130200FF90EF90DF90CF90BF900895CF93C82FC9
S1130210482F417060E081E00E94C103C1FB442784
S113022040F961E081E00E94C103C2FB442740F928
S113023062E081E00E94C103C3FB442740F964E00B
S113024081E00E94C103CF910895CF93C82F40E06D
S113025063E080E00E94C1038C2F82958F700E941E
S1130260060141E062E080E00E94C1038FE99FE063
S11302700197F1F700C0000040E062E080E00E94D6
S1130280C1038C2F0E94060141E062E080E00E94DD
S1130290C1038FE99FE00197F1F700C0000040E03F
S11302A062E080E00E94C103CF910895813059F04B
S11302B028F0823069F0833081F0089580E8860F59
S11302C00E942501089580EC860F0E94250108955F
S11302D084E9860F0E942501089584ED860F0E940B
S11302E02501089581E00E942501089541E063E01D
S11302F080E00E944B0341E061E080E00E944B03F8
S113030041E062E080E00E944B0341E060E081E074
S11303100E944B0341E061E081E00E944B0341E015
S113032062E081E00E944B0341E064E081E00E94CE
S11303304B032FE785EB91E0215080409040E1F79B
S113034000C0000040E063E080E00E94C10382E05E
S11303500E94060141E062E080E00E94C1038FE94F
S11303609FE00197F1F700C0000040E062E080E008
S11303700E94C10388E20E94250190EF9A95F1F74B
S11303808FE00E94250120EF2A95F1F781E00E9479
S113039025018FE39FE10197F1F700C0000086E09B
S11303A00E9425010895CF93C82F41E063E080E0C7
S11303B00E94C1038C2F82958F700E94060141E038
S11303C062E080E00E94C1038FE99FE00197F1F7AA
S11303D000C0000040E062E080E00E94C1038C2F76
S11303E00E94060141E062E080E00E94C1038FE9BF
S11303F09FE00197F1F700C0000040E062E080E078
S11304000E94C103CF910895CF93DF93EC0103C001
S11304100E94D301219688818111FACFDF91CF9177
S11304200895CF92DF92EF92FF929FB59E7F9FBD7A
S11304309FB592609FBD9EB598609EBD9EB590612C
S11304409EBD9FB59F7B9FBD9FB590689FBD27E8CC
S113045033E137BD26BD682F70E080E090E00E9454
S1130460930520E030E040EA50E40E941F0620E0BB
S113047030E044E353E40E94F00420E030E040EA3A
S113048050E40E94840420E030E048EC52E40E94EE
S1130490F0046B017C0166B577B56F5F7F4F80E038
S11304A090E00E949105A70196010E941F0620E09A
S11304B030E040E85FE30E9483040E9462057BBD54
S11304C06ABD0E947904FF90EF90DF90CF90089569
S11304D0CF93DF9300D000D000D0CDB7DEB70E9419
S11304E03B030E9462040E9476010E94410086E060
S11304F0EFEAF0E0DE01119601900D928A95E1F7A2
S11305000E94720163E080E00E94560188E790E057
S11305100E9404022FEF8DE399E421508040904023
S1130520E1F700C000000E947201D12CF12CE12CF3
S113053010E0153000F50E9492008F3FE1F00E9418
S11305409200082F2FEF86E191E1215080409040E6
S1130550E1F700C00000802F0E94D301E1E0F0E049
S1130560EC0FFD1FE10FF11D8081081302C0E3941D
S113057001C0F3941F5F1530E1F62FEF83ED90E394
S1130580215080409040E1F700C00000FF20F1F0CE
S11305900E94720163E081E00E94560187E890E0C6
S11305A00E94040263E082E00E94560186E990E022
S11305B00E9404022FEF83ED90E32150804090408D
S11305C0E1F700C000000E947201D39425E0E2121A
S11305D027C00E94720163E081E00E94560180EA14
S11305E090E00E94040241E064E080E00E94C103C4
S11305F00E94790484EB0E9411028FEF95EE2AEA9F
S1130600815090402040E1F700C000008AE50E943C
S113061011020E94720140E064E080E00E94C10384
S113062083E0D81283CF41E067E081E00E94C103F8
S113063041E066E082E00E94C10363E081E00E9441
S1130640560188EA90E00E9404029FEF25EE8AEAB0
S1130650915020408040E1F700C0000040E067E096
S113066081E00E94C10340E066E082E00E94C10391
S11306700E9472015ACF8DEF8ABB8FEF87BB8DE743
S113068084BB81E281BB1BBA88E088BB8CE385BB59
S113069088ED82BB0895843008F072C0683008F099
S11306A06FC0423008F06CC0813001F130F082300C
S11306B0B1F1833009F44CC00895413059F42AB3A0
S11306C081E090E002C0880F991F6A95E2F7822BBF
S11306D08ABB08952AB381E090E002C0880F991F75
S11306E06A95E2F7809582238ABB0895413059F4D4
S11306F027B381E090E002C0880F991F6A95E2F762
S1130700822B87BB089527B381E090E002C0880F55
S1130710991F6A95E2F78095822387BB089541303B
S113072059F424B381E090E002C0880F991F6A95C0
S1130730E2F7822B84BB089524B381E090E002C0E9
S1130740880F991F6A95E2F78095822384BB0895E8
S1130750413059F421B381E090E002C0880F991F21
S11307606A95E2F7822B81BB089521B381E090E082
S113077002C0880F991F6A95E2F78095822381BB96
S11307800895813001F130F08230B1F1833009F401
S11307904CC00895413059F42BB381E090E002C07D
S11307A0880F991F6A95E2F7822B8BBB08952BB3B0
S11307B081E090E002C0880F991F6A95E2F7809566
S11307C082238BBB0895413059F428B381E090E033
S11307D002C0880F991F6A95E2F7822B88BB08959F
S11307E028B381E090E002C0880F991F6A95E2F770
S11307F08095822388BB0895413059F425B381E064
S113080090E002C0880F991F6A95E2F7822B85BB9E
S1130810089525B381E090E002C0880F991F6A957E
S1130820E2F78095822385BB0895413059F422B3C1
S113083081E090E002C0880F991F6A95E2F7822B4D
S113084082BB089522B381E090E002C0880F991F13
S11308506A95E2F78095822382BB0895813089F0FE
S113086028F08230C9F0833011F1089589B390E003
S113087002C0959587956A95E2F78170FA018083A5
S1130880089586B390E002C0959587956A95E2F73E
S11308908170FA018083089583B390E002C0959536
S11308A087956A95E2F78170FA018083089580B391
S11308B090E002C0959587956A95E2F78170FA01F8
S11308C0808308958FB58E7F8FBD8FB582608FBD75
S11308D08EB588608EBD8EB580618EBD8FB58F7BE1
S11308E08FBD8FB580688FBD87E893E197BD86BDC6
S11308F008958EB581608EBD8EB582608EBD8EB535
S113090084608EBD08955058BB27AA270E949B047B
S11309100C94E5050E94D70538F00E94DE0520F00E
S113092039F49F3F19F426F40C94D4050EF4E095A1
S1130930E7FB0C94CE05E92F0E94F60558F3BA178D
S1130940620773078407950720F079F4A6F50C94E1
S113095018060EF4E0950B2EBA2FA02D0B01B90149
S113096090010C01CA01A0011124FF27591B99F021
S1130970593F50F4503E68F11A16F040A22F232F2D
S1130980342F4427585FF3CF469537952795A7957D
S1130990F0405395C9F77EF41F16BA0B620B730B24
S11309A0840BBAF09150A1F0FF0FBB1F661F771F95
S11309B0881FC2F70EC0BA0F621F731F841F48F44A
S11309C0879577956795B795F7959E3F08F0B0CFD3
S11309D09395880F08F09927EE0F979587950895BA
S11309E00E9404050C94E5050E94DE0558F00E945F
S11309F0D70540F029F45F3F29F00C94CE0551113E
S1130A000C9419060C94D4050E94F60568F39923F6
S1130A10B1F3552391F3951B550BBB27AA276217F6
S1130A207307840738F09F5F5F4F220F331F441F03
S1130A30AA1FA9F335D00E2E3AF0E0E832D0915037
S1130A405040E695001CCAF72BD0FE2F29D0660F24
S1130A50771F881FBB1F261737074807AB07B0E867
S1130A6009F0BB0B802DBF01FF2793585F4F3AF06D
S1130A709E3F510578F00C94CE050C9419065F3F07
S1130A80E4F3983ED4F3869577956795B795F795F3
S1130A909F5FC9F7880F911D9695879597F90895DB
S1130AA0E1E0660F771F881FBB1F62177307840777
S1130AB0BA0720F0621B730B840BBA0BEE1F88F786
S1130AC0E09508950E94FE0588F09F5798F0B92F8D
S1130AD09927B751B0F0E1F0660F771F881F991F6F
S1130AE01AF0BA95C9F714C0B13091F00E941806F3
S1130AF0B1E008950C941806672F782F8827B85F03
S1130B0039F0B93FCCF3869577956795B395D9F7C6
S1130B103EF490958095709561957F4F8F4F9F4FD0
S1130B200895E89409C097FB3EF4909580957095DC
S1130B3061957F4F8F4F9F4F9923A9F0F92F96E925
S1130B40BB279395F695879577956795B795F1119A
S1130B50F8CFFAF4BB0F11F460FF1BC06F5F7F4F37
S1130B608F4F9F4F16C0882311F096E911C0772349
S1130B7021F09EE8872F762F05C0662371F096E852
S1130B80862F70E060E02AF09A95660F771F881F21
S1130B90DAF7880F9695879597F9089597F99F67DF
S1130BA080E870E060E008959FEF80EC08950024F1
S1130BB00A941616170618060906089500240A94BE
S1130BC012161306140605060895092E0394000C44
S1130BD011F4882352F0BB0F40F4BF2B11F460FFD3
S1130BE004C06F5F7F4F8F4F9F4F089557FD9058FC
S1130BF0440F551F59F05F3F71F04795880F97FBDD
S1130C00991F61F09F3F79F0879508951216130696
S1130C101406551FF2CF4695F1DF08C016161706C5
S1130C201806991FF1CF86957105610508940895FA
S1130C30E894BB2766277727CB0197F908950E948C
S1130C4032060C94E5050E94D70538F00E94DE05B3
S1130C5020F0952311F00C94CE050C94D4051124A6
S1130C600C9419060E94F60570F3959FC1F3950F35
S1130C7050E0551F629FF001729FBB27F00DB11D1C
S1130C80639FAA27F00DB11DAA1F649F6627B00DAC
S1130C90A11D661F829F2227B00DA11D621F739F95
S1130CA0B00DA11D621F839FA00D611D221F749FA3
S1130CB03327A00D611D231F849F600D211D822FEA
S1130CC0762F6A2F11249F5750409AF0F1F0882311
S1130CD04AF0EE0FFF1FBB1F661F771F881F91503E
S1130CE05040A9F79E3F510580F00C94CE050C941A
S1130CF019065F3FE4F3983ED4F38695779567959C
S1130D00B795F795E7959F5FC1F7FE2B880F911D67
S10F0D109695879597F90895F894FFCF05
S1130D1C05040302070604033738392F3435362A01
S1130D2C3132332D43303D2B456E74657220506146
S1130D3C7373776F72640057524F4E472050415370
S1130D4C53574F52440054525920616761696E00E5
S1130D5C57656C636F6D65004641494C45440031E1
S1090D6C323334350000AF
S9030000FC
