:100000000C942A000C943F000C943F000C943F0089
:100010000C943F000C943F000C943F000C943F0064
:100020000C943F000C943F000C943F000C943F0054
:100030000C943F000C943F000C943F000C943F0044
:100040000C943F000C943F000C943F000C943F0034
:100050000C943F0011241FBECFE5D8E0DEBFCDBF1A
:1000600013E0A0E6B0E0E6E4F5E002C005900D92F2
:10007000AC38B107D9F70E9441000C94A1020C944E
:1000800000000E94A7000E94B600C12CD12C76016E
:10009000E601CC0FDD1FFE01EA50FE4F8081918109
:1000A0000E94C90082E390E00E94E1000E94D70014
:1000B000C05ADF4F6881798188EE93E00E94480240
:1000C000072E000C880B990B0E9424012B013C0188
:1000D00020E030E04AE755E40E94B3014B015C01A7
:1000E00020E030E040E85FE30E94F000882324F144
:1000F00020E03FEF4FE757E4C501B4010E94AE0195
:100100001816ACF420E030E040E251E4C301B20143
:100110000E94B3010E94F50006C080E991E00197BA
:10012000F1F76150710961157105B9F70AC0C50190
:10013000B4010E94F50002C061E070E0CB010197BC
:10014000F1F78FEFC81AD80AE80AF80AA1CF8DEFA5
:100150008ABB8FEF87BB8DE384BB81E281BB1BBA77
:1001600018BA8CE385BB8CEF82BB08958FB58E7F68
:100170008FBD8FB582608FBD8EB588608EBD8EB508
:1001800080618EBD8FB58F7B8FBD8FB580688FBD31
:1001900008959C0140E050E060E970ED83E090E05C
:1001A0000E945C022150310937BD26BD08958EB5ED
:1001B00081608EBD8EB582608EBD8EB58B7F8EBD0B
:1001C0000895A6B5B7B511969C010E947E0224E65B
:1001D00030E040E050E00E945C023BBD2ABD089543
:1001E0000E94610108F481E008950E948D0188F069
:1001F0009F5798F0B92F9927B751B0F0E1F0660FEB
:10020000771F881F991F1AF0BA95C9F714C0B1302B
:1002100091F00E94A701B1E008950C94A701672F07
:10022000782F8827B85F39F0B93FCCF3869577955A
:100230006795B395D9F73EF4909580957095619543
:100240007F4F8F4F9F4F0895E89409C097FB3EF46E
:1002500090958095709561957F4F8F4F9F4F992313
:10026000A9F0F92F96E9BB279395F6958795779591
:100270006795B795F111F8CFFAF4BB0F11F460FF51
:100280001BC06F5F7F4F8F4F9F4F16C0882311F0A9
:1002900096E911C0772321F09EE8872F762F05C0BD
:1002A000662371F096E8862F70E060E02AF09A9558
:1002B000660F771F881FDAF7880F9695879597F94D
:1002C0000895990F0008550FAA0BE0E8FEEF1616E7
:1002D0001706E807F907C0F012161306E407F5073A
:1002E00098F0621B730B840B950B39F40A2661F0AE
:1002F000232B242B252B21F408950A2609F4A14051
:10030000A6958FEF811D811D089557FD9058440FCC
:10031000551F59F05F3F71F04795880F97FB991F64
:1003200061F09F3F79F08795089512161306140621
:10033000551FF2CF4695F1DF08C0161617061806AE
:10034000991FF1CF86957105610508940895E89489
:10035000BB2766277727CB0197F908950E94610193
:1003600008F48FEF08950E94C6010C9437020E9492
:10037000290238F00E94300220F0952311F00C94ED
:1003800020020C94260211240C94A8010E948501DD
:1003900070F3959FC1F3950F50E0551F629FF001D8
:1003A000729FBB27F00DB11D639FAA27F00DB11DF1
:1003B000AA1F649F6627B00DA11D661F829F22277A
:1003C000B00DA11D621F739FB00DA11D621F839F01
:1003D000A00D611D221F749F3327A00D611D231FD7
:1003E000849F600D211D822F762F6A2F11249F5725
:1003F00050409AF0F1F088234AF0EE0FFF1FBB1F28
:10040000661F771F881F91505040A9F79E3F5105E6
:1004100080F00C9420020C94A8015F3FE4F3983E16
:10042000D4F3869577956795B795F795E7959F5F90
:10043000C1F7FE2B880F911D9695879597F9089522
:1004400097F99F6780E870E060E008959FEF80EC87
:10045000089500240A94161617061806090608952A
:1004600000240A9412161306140605060895092E90
:100470000394000C11F4882352F0BB0F40F4BF2BFF
:1004800011F460FF04C06F5F7F4F8F4F9F4F08953F
:1004900097FB072E16F4009407D077FD09D00E9431
:1004A0008D0207FC05D03EF4909581959F4F0895ED
:1004B000709561957F4F0895A1E21A2EAA1BBB1B70
:1004C000FD010DC0AA1FBB1FEE1FFF1FA217B30720
:1004D000E407F50720F0A21BB30BE40BF50B661F36
:1004E000771F881F991F1A9469F7609570958095FA
:1004F00090959B01AC01BD01CF010895A29FB00171
:10050000B39FC001A39F700D811D1124911DB29F47
:10051000700D811D1124911D0895AA1BBB1B51E173
:1005200007C0AA1FBB1FA617B70710F0A61BB70B63
:10053000881F991F5A95A9F780959095BC01CD0108
:060540000895F894FFCFBE
:10054600080008000400080008000800080004006D
:100556000800080008000800040008000800080059
:10056600080004000800080008000400080008004D
:10057600080008000400080008000800080004003D
:100586000800080008000800040008000800080029
:10059600040008000800080008000400080008001D
:1005A6000800080004000800080008000800080009
:1005B6000400080008000800040008000800040001
:1005C60008000400080008000800040008000800ED
:1005D60008000800040004000400080008000800E1
:1005E60004000800080008000800040008000800CD
:1005F60008000800040008000800080004000800BD
:1006060008000800080004000800080008000800A8
:10061600040008000800080008000400080008009C
:10062600080004000800080008000800040008008C
:100636000800080008000400080008000800080078
:10064600080004000800080008000400080008006C
:100656000400080004000800080008000400080060
:100666000800080008000400040004000800040054
:10067600040008000400080008000800080008003C
:100686000800080008000400040008000400040034
:10069600080004000800080008000800080002001E
:1006A6000400080004000400080004000800080014
:1006B60008000800080008000800080004000400FC
:1006C60008000400040008000400080008000800F0
:1006D6000800080002004A018801B801B8010000BC
:1006E600B801EE010B020B0200000B024B02EE01F9
:1006F600EE010000B8018801B80100004A01880136
:10070600B801B8010000B801EE010B020B020000AF
:100716000B024B02EE01EE010000B8018801B801A0
:1007260000004A018801B801B8010000B8010B02B7
:100736004B024B0200004B029302BA02BA020000BF
:1007460093024B029302B8010000B801EE010B02BE
:100756000B0200004B029302B8010000B8010B0225
:10076600EE01EE0100000B02B801EE010000B80137
:10077600B801B801EE010B020B0200000B024B029E
:10078600EE01EE010000B8018801B80100004A013F
:100796008801B801B8010000B801EE010B020B0296
:1007A60000000B024B02EE01EE010000B8018801C9
:1007B600B80100004A018801B801B8010000B8017B
:1007C6000B024B024B0200004B029302BA02BA0222
:1007D600000093024B029302B8010000B801EE013B
:1007E6000B020B0200004B029302B8010000B80195
:1007F6000B02EE01EE0100000B02B801EE01000053
:10080600930200000000BA02000000009302930267
:1008160000001003000093024B02000000004B0290
:10082600000000000B0200000000EE010B020000B9
:10083600EE010000B801930200000000BA020000B9
:1008460000009302930200001003000093024B0283
:10085600000000004B02000000000B020000000038
:0C086600EE010B020000EE010000B801E2
:00000001FF
