S01E00005661726961626C655F44436D6F746F725F53706565642E7372656379
S11300000C942A000C943C000C943C000C943C008E
S11300100C943C000C943C000C943C000C943C006C
S11300200C943C000C943C000C940E010C94D300F2
S11300300C943C000C943C000C943C000C943C004C
S11300400C943C000C943C000C943C000C943C003C
S11300500C943C0011241FBECFE5D8E0DEBFCDBF19
S113006020E0A0E6B0E001C01D92AA36B207E1F795
S11300700E943E000C9489020C940000CF93DF93FD
S113008000D0CDB7DEB786E08A8381E089830E9401
S11300909A00CE0101960E9475000E94A9000E9458
S11300A0C90080E00E94890024E6AC01249FC001BD
S11300B0259F900D1124BC0180E090E00E94EC018A
S11300C020E030EC4FE754E40E944B010E94BD0154
S11300D0862F0E94B6005FE38DE093E0515080408C
S11300E09040E1F700C00000DCCFFC0147B19081F3
S11300F080E4989F90011124942F9F73292B27B992
S113010096B1906896B986B19181887F892B86B91A
S1130110089597B1907E97B997B1892B87B986B125
S1130120806486B9349BFECF86B1806186B984B180
S113013095B108958CEF8ABB9FEF97BB9DE394BB69
S113014091E091BB1BBA98E698BB9CE395BB82BB3C
S1130150089583B7806483BF83B7886083BF83B700
S11301608F7E83BF83B7806283BF0895853680F412
S1130170282F30E0322F222736952795369527955C
S1130180ABE7B4E10E947A029695879581508CBFC3
S1130190089583B7816083BF83B7826083BF83B7C9
S11301A08B7F83BF08951F920F920FB60F92112475
S11301B02F933F934F935F936F937F938F939F936B
S11301C0AF93BF93EF93FF9380916200909163008C
S11301D001969093630080936200813D934069F49B
S11301E0109263001092620081E782BFE091660082
S11301F0F0916700309709F00995FF91EF91BF9155
S1130200AF919F918F917F916F915F914F913F91AA
S11302102F910F900FBE0F901F9018951F920F9261
S11302200FB60F9211242F933F934F935F936F93C5
S11302307F938F939F93AF93BF93EF93FF9380919B
S1130240600090916100019690936100809360003A
S113025020916800309169008217930759F4109235
S1130260610010926000E0916400F09165003097A5
S113027009F00995FF91EF91BF91AF919F918F91F3
S11302807F916F915F914F913F912F910F900FBE8E
S11302900F901F9018950E945F010C9440020E94D9
S11302A0390258F00E94320240F029F45F3F29F0ED
S11302B00C94290251110C9474020C942F020E9484
S11302C0510268F39923B1F3552391F3951B550B10
S11302D0BB27AA2762177307840738F09F5F5F4F15
S11302E0220F331F441FAA1FA9F335D00E2E3AF054
S11302F0E0E832D091505040E695001CCAF72BD06C
S1130300FE2F29D0660F771F881FBB1F26173707BC
S11303104807AB07B0E809F0BB0B802DBF01FF27EE
S113032093585F4F3AF09E3F510578F00C942902A0
S11303300C9474025F3FE4F3983ED4F3869577956A
S11303406795B795F7959F5FC9F7880F911D9695A7
S1130350879597F90895E1E0660F771F881FBB1F03
S1130360621773078407BA0720F0621B730B840BB0
S1130370BA0BEE1F88F7E09508950E94590288F0A1
S11303809F5798F0B92F9927B751B0F0E1F0660F55
S1130390771F881F991F1AF0BA95C9F714C0B13096
S11303A091F00E947302B1E008950C947302672FD8
S11303B0782F8827B85F39F0B93FCCF386957795C5
S11303C06795B395D9F73EF49095809570956195AE
S11303D07F4F8F4F9F4F0895E89409C097FB3EF4D9
S11303E090958095709561957F4F8F4F9F4F99237E
S11303F0A9F0F92F96E9BB279395F69587957795FC
S11304006795B795F111F8CFFAF4BB0F11F460FFBB
S11304101BC06F5F7F4F8F4F9F4F16C0882311F013
S113042096E911C0772321F09EE8872F762F05C027
S1130430662371F096E8862F70E060E02AF09A95C2
S1130440660F771F881FDAF7880F9695879597F9B7
S1130450089597F99F6780E870E060E008959FEF42
S113046080EC089500240A94161617061806090647
S1130470089500240A941216130614060506089516
S1130480092E0394000C11F4882352F0BB0F40F49E
S1130490BF2B11F460FF04C06F5F7F4F8F4F9F4FDE
S11304A0089557FD9058440F551F59F05F3F71F060
S11304B04795880F97FB991F61F09F3F79F08795C7
S11304C00895121613061406551FF2CF4695F1DF50
S11304D008C0161617061806991FF1CF86957105E0
S11304E0610508940895E894BB2766277727CB0114
S11304F097F90895A29FB001B39FC001A39F700D07
S1130500811D1124911DB29F700D811D1124911D17
S10905100895F894FFCFEA
S9030000FC
